{
  "contractName": "DandysToken",
  "abi": [
    {
      "inputs": [],
      "stateMutability": "nonpayable",
      "type": "constructor"
    },
    {
      "inputs": [],
      "name": "totalSupply",
      "outputs": [
        {
          "internalType": "uint256",
          "name": "",
          "type": "uint256"
        }
      ],
      "stateMutability": "view",
      "type": "function",
      "constant": true
    }
  ],
  "bytecode": "0x608060405234801561001057600080fd5b50620f424060008190555060b3806100296000396000f3fe6080604052348015600f57600080fd5b506004361060285760003560e01c806318160ddd14602d575b600080fd5b60336047565b604051603e91906064565b60405180910390f35b60005481565b6000819050919050565b605e81604d565b82525050565b6000602082019050607760008301846057565b9291505056fea2646970667358221220c87ce19a4d88fc4c5a6e1ed12635d04547dc765c35f0089b1587dc604b730d0d64736f6c634300080a0033",
  "immutableReferences": {},
  "source": "/* It will implement ERC20 standard methods\r\nIn charge of behaviour of my crypto */\r\n\r\npragma solidity >=0.4.22 <0.9.0;\r\n\r\ncontract DandysToken {\r\n    uint256 public totalSupply;\r\n    //Construct\r\n    constructor() public {\r\n        totalSupply = 1000000; //Number of all tokens ever made\r\n    }\r\n    //Set the number of tokens\r\n    //Read total number of tokens\r\n}",
  "sourcePath": "C:\\Tom\\Visual Code-Projects\\My_Crypto\\contracts\\DandysToken.sol",
  "compiler": {
    "name": "solc",
    "version": "0.8.10+commit.fc410830.Emscripten.clang"
  },
  "schemaVersion": "3.4.4",
  "updatedAt": "2021-12-19T15:53:46.036Z",
  "networkType": "ethereum",
  "devdoc": {
    "kind": "dev",
    "methods": {},
    "version": 1
  },
  "userdoc": {
    "kind": "user",
    "methods": {},
    "version": 1
  }
}