{
  "contractName": "DandysToken",
  "abi": [
    {
      "inputs": [
        {
          "internalType": "uint256",
          "name": "_initSupply",
          "type": "uint256"
        }
      ],
      "stateMutability": "nonpayable",
      "type": "constructor"
    },
    {
      "inputs": [
        {
          "internalType": "address",
          "name": "",
          "type": "address"
        }
      ],
      "name": "balanceOf",
      "outputs": [
        {
          "internalType": "uint256",
          "name": "",
          "type": "uint256"
        }
      ],
      "stateMutability": "view",
      "type": "function",
      "constant": true
    },
    {
      "inputs": [],
      "name": "totalSupply",
      "outputs": [
        {
          "internalType": "uint256",
          "name": "",
          "type": "uint256"
        }
      ],
      "stateMutability": "view",
      "type": "function",
      "constant": true
    }
  ],
  "bytecode": "0x608060405234801561001057600080fd5b506040516102573803806102578339818101604052810190610032919061007a565b80600081905550506100a7565b600080fd5b6000819050919050565b61005781610044565b811461006257600080fd5b50565b6000815190506100748161004e565b92915050565b6000602082840312156100905761008f61003f565b5b600061009e84828501610065565b91505092915050565b6101a1806100b66000396000f3fe608060405234801561001057600080fd5b50600436106100365760003560e01c806318160ddd1461003b57806370a0823114610059575b600080fd5b610043610089565b60405161005091906100c0565b60405180910390f35b610073600480360381019061006e919061013e565b61008f565b60405161008091906100c0565b60405180910390f35b60005481565b60016020528060005260406000206000915090505481565b6000819050919050565b6100ba816100a7565b82525050565b60006020820190506100d560008301846100b1565b92915050565b600080fd5b600073ffffffffffffffffffffffffffffffffffffffff82169050919050565b600061010b826100e0565b9050919050565b61011b81610100565b811461012657600080fd5b50565b60008135905061013881610112565b92915050565b600060208284031215610154576101536100db565b5b600061016284828501610129565b9150509291505056fea2646970667358221220d1c197dc1ca87e84b26942fe3a1dec6cca65f7a1962d142dfe2c35c14cca203d64736f6c634300080a0033",
  "immutableReferences": {},
  "source": "/* It will implement ERC20 standard methods\r\nIn charge of behaviour of my crypto */\r\n\r\npragma solidity >=0.4.22 <0.9.0;\r\n\r\ncontract DandysToken {\r\n    uint256 public totalSupply;\r\n\r\n    mapping(address => uint256) public balanceOf; //key(account) - value(account balance), name of variable is because of ERC20 standard\r\n    \r\n    //Construct\r\n    constructor(uint256 _initSupply) public { //_ - convension, not compulsory\r\n        totalSupply = _initSupply; //Number of all tokens ever made\r\n    }\r\n    //Set the number of tokens\r\n    //Read total number of tokens\r\n}",
  "sourcePath": "C:\\Tom\\Visual Code-Projects\\My_Crypto\\contracts\\DandysToken.sol",
  "compiler": {
    "name": "solc",
    "version": "0.8.10+commit.fc410830.Emscripten.clang"
  },
  "schemaVersion": "3.4.4",
  "updatedAt": "2021-12-19T17:07:38.928Z",
  "networkType": "ethereum",
  "devdoc": {
    "kind": "dev",
    "methods": {},
    "version": 1
  },
  "userdoc": {
    "kind": "user",
    "methods": {},
    "version": 1
  }
}